:0400000007EF00F016
:0A0008006D8276ED0BF0C7EF13F0E8
:10100000003738392F3435362A3132332D23303DED
:101010002B5072657373204F4E2F4320546F205214
:101020006573657420436C6F636B005072657373F6
:10103000202B20546F2053657420436C6F636B002A
:1010400053657474696E6720436C6F636B2E2E2E2C
:1010500000696E697469616C6973696E67002569FE
:10106000000021EE06F0060EDE6AE806FDE266C02C
:1010700006F165C007F164C008F163C009F162C000
:101080000AF161C00BF160C00CF121EE00F0050E19
:10109000DE6AE806FDE26CC000F16BC001F16AC0D7
:1010A00002F169C003F168C004F167C005F19E0E4A
:1010B0004B6E000E4C6E7DEC0EF09E0E526E000ECE
:1010C000536E010E546E010E556E510E566E100E7B
:1010D000576EF8EC13F0000E0101106F000E0F6F49
:1010E0009E0E526E000E536E010E546E0F510D0F78
:1010F000556E4F0E566E100E576EF8EC13F0030E31
:10110000596E080E586E770EE82EFED7582EFCD773
:10111000592EFAD700F001010F4B102B10BF9AEF98
:1011200008F0105109E1050E0F5DD8A09AEF08F004
:101130009CEF08F070EF08F0BC0E466E000E476E94
:1011400026EC13F0660E426E000E436E5EEC13F05A
:10115000650E426E000E436E5EEC13F0640E426E3E
:10116000000E436E5EEC13F0630E426E000E436E93
:101170005EEC13F0620E426E000E436E5EEC13F0F6
:10118000610E426E000E436E5EEC13F0600E426E16
:10119000000E436E5EEC13F06C0E426E000E436E5A
:1011A0005EEC13F06B0E426E000E436E5EEC13F0BD
:1011B0006A0E426E000E436E5EEC13F0690E426ED4
:1011C000000E436E5EEC13F0680E426E000E436E2E
:1011D0005EEC13F0670E426E000E436E5EEC13F091
:1011E000A80E3E6E000E3F6E96EC0FF09E0E426E05
:1011F000000E436E010E446E94EC11F0000E0101DE
:101200000E6F010E0D6FBC0E426E000E436E340E5B
:10121000446E000E456E0DEC0FF001010D050E1130
:10122000D8A415EF09F017EF09F040EF09F09E0E72
:10123000426E000E436E010E446E94EC11F09E0E51
:10124000526E000E536E010E546E010E556E2B0E33
:10125000566E100E576EF8EC13F09E0E526E000E86
:10126000536E020E546E010E556E110E566E100E18
:10127000576EF8EC13F0000E01010E6F000E0D6FAB
:10128000230E3418D8A447EF09F049EF09F053EFC3
:1012900009F0000E5A6E000E5B6E000E236E2A0ED1
:1012A000346E03EF09F02B0E3418D8A45AEF09F06E
:1012B0005CEF09F082EF0AF09E0E426E000E436E64
:1012C000010E446E94EC11F09E0E526E000E536EA1
:1012D000010E546E010E556E400E566E100E576E76
:1012E000F8EC13F0A80E386E000E396E32EC15F0E3
:1012F000040E596E0C0E586E340EE82EFED7582E82
:10130000FCD7592EFAD7BC0E426E000E436E330E38
:10131000446E000E456E0DEC0FF0206E2050D8B4D8
:1013200094EF09F096EF09F083EF09F033C0D7F09E
:10133000040E596E0C0E586E340EE82EFED7582E41
:10134000FCD7592EFAD7BC0E426E000E436E320EF9
:10135000446E000E456E0DEC0FF01F6E1F50D8B49A
:10136000B4EF09F0B6EF09F0A3EF09F032C0D8F0FE
:10137000040E596E0C0E586E340EE82EFED7582E01
:10138000FCD7592EFAD7BC0E426E000E436E310EBA
:10139000446E000E456E0DEC0FF01E6E1E50D8B45C
:1013A000D4EF09F0D6EF09F0C3EF09F031C0D9F05E
:1013B000040E596E0C0E586E340EE82EFED7582EC1
:1013C000FCD7592EFAD7BC0E426E000E436E300E7B
:1013D000446E000E456E0DEC0FF01D6E1D50D8B41E
:1013E000F4EF09F0F6EF09F0E3EF09F030C0DAF0BE
:1013F000040E596E0C0E586E340EE82EFED7582E81
:10140000FCD7592EFAD7BC0E426E000E436E2F0E3B
:10141000446E000E456E0DEC0FF01C6E1C50D8B4DF
:1014200014EF0AF016EF0AF003EF0AF02FC0DBF01A
:10143000040E596E0C0E586E340EE82EFED7582E40
:10144000FCD7592EFAD7BC0E426E000E436E2E0EFC
:10145000446E000E456E0DEC0FF01B6E1B50D8B4A1
:1014600034EF0AF036EF0AF023EF0AF02EC0DCF07A
:10147000040E596E0C0E586E340EE82EFED7582E00
:10148000FCD7592EFAD72E0E346E33500A0DF35076
:101490003224F00F5B6E31500A0DF3503024F00F00
:1014A0005A6E2F500A0DF3502E24F00F236E3B0E70
:1014B0005B645DEF0AF05FEF0AF061EF0AF0000E87
:1014C0005B6E3B0E5A6467EF0AF069EF0AF06BEF50
:1014D0000AF0000E5A6E170E236471EF0AF073EFD4
:1014E0000AF075EF0AF0000E236E000E01010E6F78
:1014F000010E0D6FA80E386E000E396E23EC15F03C
:1015000003EF09F05BC038F0396A000E3B6E0A0E3B
:101510003A6EEDEC11F03850256E5BC038F0396A48
:10152000000E3B6E0A0E3A6E7AEC10F03850246EC4
:101530006C0E386E000E396E010E3A6EE5EC0DF051
:1015400025C038F0020EA4EC14F0420EE82EFED7AF
:1015500000D06C0E386E000E396E000E3A6EE5EC5F
:101560000DF0420EE82EFED700D06B0E386E000E46
:10157000396E010E3A6EE5EC0DF024C038F0020E23
:10158000A4EC14F0420EE82EFED700D06B0E386E9D
:10159000000E396E000E3A6EE5EC0DF0420EE82EAC
:1015A000FED700D05AC038F0396A000E3B6E0A0EE2
:1015B0003A6EEDEC11F03850256E5AC038F0396AA9
:1015C000000E3B6E0A0E3A6E7AEC10F03850246E24
:1015D0006A0E386E000E396E010E3A6EE5EC0DF0B3
:1015E00025C038F0020EA4EC14F0420EE82EFED70F
:1015F00000D06A0E386E000E396E000E3A6EE5ECC1
:101600000DF0420EE82EFED700D0690E386E000EA7
:10161000396E010E3A6EE5EC0DF024C038F0020E82
:10162000A4EC14F0420EE82EFED700D0690E386EFE
:10163000000E396E000E3A6EE5EC0DF0420EE82E0B
:10164000FED700D023C038F0396A000E3B6E0A0E78
:101650003A6EEDEC11F03850256E23C038F0396A3F
:10166000000E3B6E0A0E3A6E7AEC10F03850246E83
:10167000680E386E000E396E010E3A6EE5EC0DF014
:1016800025C038F0020EA4EC14F0420EE82EFED76E
:1016900000D0680E386E000E396E000E3A6EE5EC22
:1016A0000DF0420EE82EFED700D0670E386E000E09
:1016B000396E010E3A6EE5EC0DF024C038F0020EE2
:1016C000A4EC14F0420EE82EFED700D0670E386E60
:1016D000000E396E000E3A6EE5EC0DF0420EE82E6B
:1016E000FED700D003EF09F007EF00F00600FACFB5
:1016F00036F0FBCF37F0F2A880EF0BF082EF0BF063
:101700008BEF0BF0F2A287EF0BF089EF0BF08BEF72
:101710000BF091EC15F0F0A690EF0BF092EF0BF0C0
:101720009BEF0BF0F0A097EF0BF099EF0BF09BEF16
:101730000BF08FEC15F0F0A8A0EF0BF0A2EF0BF080
:10174000ABEF0BF0F0A2A7EF0BF0A9EF0BF0ABEFB4
:101750000BF08DEC15F0F2A6B0EF0BF0B2EF0BF042
:10176000CDEF0BF0F2A0B7EF0BF0B9EF0BF0CDEF30
:101770000BF081A8BEEF0BF0C0EF0BF0CDEF0BF03C
:101780005F04D8A4C6EF0BF0C8EF0BF0CDEF0BF061
:10179000000E5F6E000E66EC15F0F2A6D2EF0BF0B5
:1017A000D4EF0BF0EFEF0BF0F2A0D9EF0BF0DBEF83
:1017B0000BF0EFEF0BF081B8E0EF0BF0E2EF0BF086
:1017C000EFEF0BF05F50D8A4E8EF0BF0EAEF0BF06F
:1017D000EFEF0BF0010E5F6E010E66EC15F0F2A656
:1017E000F4EF0BF0F6EF0BF011EF0CF0F2A0FBEFC3
:1017F0000BF0FDEF0BF011EF0CF081AA02EF0CF0F3
:1018000004EF0CF011EF0CF05E04D8A40AEF0CF01A
:101810000CEF0CF011EF0CF0000E5E6E000E59ECA8
:1018200015F0F2A616EF0CF018EF0CF033EF0CF0F9
:10183000F2A01DEF0CF01FEF0CF033EF0CF081BAAB
:1018400024EF0CF026EF0CF033EF0CF05E50D8A430
:101850002CEF0CF02EEF0CF033EF0CF0010E5E6E5F
:10186000010E59EC15F0F2A638EF0CF03AEF0CF03F
:1018700055EF0CF0F2A03FEF0CF041EF0CF055EFFC
:101880000CF081AC46EF0CF048EF0CF055EF0CF08B
:101890005D04D8A44EEF0CF050EF0CF055EF0CF0B7
:1018A000000E5D6E000E4CEC15F0F2A65AEF0CF037
:1018B0005CEF0CF077EF0CF0F2A061EF0CF063EF4F
:1018C0000CF077EF0CF081BC68EF0CF06AEF0CF0D5
:1018D00077EF0CF05D50D8A470EF0CF072EF0CF0C5
:1018E00077EF0CF0010E5D6E010E4CEC15F0F2A6D8
:1018F0007CEF0CF07EEF0CF099EF0CF0F2A083EF90
:101900000CF085EF0CF099EF0CF081AE8AEF0CF043
:101910008CEF0CF099EF0CF05C04D8A492EF0CF073
:1019200094EF0CF099EF0CF0000E5C6E000E3FECA3
:1019300015F0F2A69EEF0CF0A0EF0CF0BBEF0CF050
:10194000F2A0A5EF0CF0A7EF0CF0BBEF0CF081BEFE
:10195000ACEF0CF0AEEF0CF0BBEF0CF05C50D8A489
:10196000B4EF0CF0B6EF0CF0BBEF0CF0010E5C6EB8
:10197000010E3FEC15F09DACC0EF0CF0C2EF0CF087
:10198000CBEF0CF09EACC7EF0CF0C9EF0CF0CBEF37
:101990000CF097EC15F0F2AAD0EF0CF0D2EF0CF0AF
:1019A000DBEF0CF0F2A4D7EF0CF0D9EF0CF0DBEF8B
:1019B0000CF0F8EC14F09DA0E0EF0CF0E2EF0CF06E
:1019C000EBEF0CF09EA0E7EF0CF0E9EF0CF0EBEF83
:1019D0000CF083EC15F09DA2F0EF0CF0F2EF0CF0A0
:1019E000FBEF0CF09EA2F7EF0CF0F9EF0CF0FBEF21
:1019F0000CF089EC15F0A0A200EF0DF002EF0DF055
:101A00000BEF0DF0A1A207EF0DF009EF0DF00BEFBA
:101A10000DF07DEC15F09DA410EF0DF012EF0DF020
:101A20001BEF0DF09EA417EF0DF019EF0DF01BEF5B
:101A30000DF095EC15F0A0A020EF0DF022EF0DF0C9
:101A40002BEF0DF0A1A027EF0DF029EF0DF02BEFFC
:101A50000DF093EC15F09DA830EF0DF032EF0DF086
:101A60003BEF0DF09EA837EF0DF039EF0DF03BEF97
:101A70000DF099EC15F037C0FBFF36C0FAFF6D9200
:101A80001100010E406E38503910D8B44AEF0DF0F5
:101A90004CEF0DF0BEEF0DF038C0D9FF39C0DAFFC2
:101AA000DF30E832E832070B3A6E080E3A605BEF3F
:101AB0000DF05DEF0DF0BEEF0DF0C2EF0DF038C090
:101AC000D9FF39C0DAFFDF30E832E832070B3A6E6F
:101AD000010E3B6E3A2A6FEF0DF0D8903B363A2E4E
:101AE0006DEF0DF03B50FF0A3C6E38C0D9FF39C096
:101AF000DAFFDF50070B3D6E3D50020D940EF324CC
:101B0000D96E000EF420DA6EDECF3EF0DDCF3FF06E
:101B10003EC0D9FF3FC0DAFF3C50DF16E3EF0DF0C7
:101B200038C0D9FF39C0DAFFDF30E832E832070BBE
:101B30003A6E010E3B6E3A2AA0EF0DF0D8903B367C
:101B40003A2E9EEF0DF038C0D9FF39C0DAFFDF50D2
:101B5000070B3C6E3C50020D940EF324D96E000E20
:101B6000F420DA6EDECF3DF0DDCF3EF03DC0D9FF90
:101B70003EC0DAFF3B50DF12E3EF0DF0000E406E87
:101B8000E3EF0DF038C0D9FF39C0DAFFDFBCCBEF8F
:101B90000DF0CEEF0DF0010ECFEF0DF0000E3A6E0E
:101BA0003B6A3B50000AD8B4D8EF0DF0BEEF0DF001
:101BB0003A50000AD8B45FEF0DF0010AD8B490EFA4
:101BC0000DF0BEEF0DF040501200010E416E385086
:101BD0003910D8B4EEEF0DF0F0EF0DF062EF0EF02B
:101BE00038C0D9FF39C0DAFFDF30E832E832070BFE
:101BF0003B6E080E3B60FFEF0DF001EF0EF062EF61
:101C00000EF066EF0EF038C0D9FF39C0DAFFDF30D2
:101C1000E832E832070B3B6E010E3C6E3B2A13EFB5
:101C20000EF0D8903C363B2E11EF0EF038C0D9FFA5
:101C300039C0DAFFDF50070B3D6E3D50020D8A0EB2
:101C4000F324D96E000EF420DA6EDECF3EF0DDCF45
:101C50003FF03EC0D9FF3FC0DAFF3C50DF127BEFC0
:101C60000EF038C0D9FF39C0DAFFDF30E832E83291
:101C7000070B3B6E010E3C6E3B2A41EF0EF0D890F5
:101C80003C363B2E3FEF0EF03C50FF0A3D6E38C015
:101C9000D9FF39C0DAFFDF50070B3E6E3E50020D10
:101CA0008A0EF324D96E000EF420DA6EDECF3FF0F8
:101CB000DDCF40F03FC0D9FF40C0DAFF3D50DF1616
:101CC0007BEF0EF0000E416E7BEF0EF03A503B6E54
:101CD0003C6A3C50000AD8B470EF0EF062EF0EF090
:101CE0003B50000AD8B431EF0EF0010AD8B403EF2C
:101CF0000EF062EF0EF041501200000E4F6E4B508E
:101D00004C10D8B486EF0EF088EF0EF00CEF0FF009
:101D1000010E4B24426E000E4C20436E5EEC13F01D
:101D2000506E4BC042F04CC043F05EEC13F0506E6E
:101D3000000E4F6E4F504B244D6E000E4C204E6ED9
:101D4000020E4D24426E000E4E20436E5EEC13F0E8
:101D50004F2A070E4F64AFEF0EF0B1EF0EF09AEF7F
:101D60000EF0340E4D6EF20EE82EFED74D2EFCD73F
:101D70004BC042F04CC043F0380E446E94EC11F06E
:101D80000D0E4D6EFC0EE82EFED74D2EFCD74BC02F
:101D900042F04CC043F0380E446E94EC11F0640EE7
:101DA000E82EFED74BC042F04CC043F0380E446ED4
:101DB00094EC11F04BC042F04CC043F0010E446E65
:101DC00094EC11F04BC042F04CC043F0020E446E54
:101DD00094EC11F04BC042F04CC043F0060E446E40
:101DE00094EC11F04BC042F04CC043F00C0E446E2A
:101DF00094EC11F04BC042F04CC043F0380E446EEE
:101E000094EC11F04BC042F04CC043F0800E446E95
:101E100094EC11F00CEF0FF01200000E486E000E63
:101E2000496E42504310D8B418EF0FF01AEF0FF07C
:101E300092EF0FF044504510D8B421EF0FF023EF8C
:101E40000FF092EF0FF0000E4B6E000E4A6E4A50EC
:101E50004224386E000E4320396E000E3A6EE5ECD7
:101E60000DF04A2A030E4A6438EF0FF03AEF0FF0F4
:101E700027EF0FF04B504224386E000E4320396E8E
:101E8000010E3A6EE5EC0DF0000E4C6E4C50422403
:101E9000466E000E4320476E040E4624386E000E38
:101EA0004720396E490E3A6E000E3B6E45EC12F03B
:101EB0004904D8A45EEF0FF060EF0FF07EEF0FF053
:101EC0004B50040D010E466E100E476EF350462621
:101ED000F45047224C504626000E472246C0F6FFDB
:101EE00047C0F7FFF86A44C0D9FF45C0DAFF0800D1
:101EF000F5CFDFFF010E486E000E496E4C2A030E2F
:101F00004C6485EF0FF087EF0FF046EF0FF04B2A90
:101F1000030E4B648EEF0FF090EF0FF025EF0FF0F4
:101F200094EF0FF0000E486E485012003E503F10E4
:101F3000D8B49DEF0FF09FEF0FF00AEF10F0D59E91
:101F40003EC03BF03FC03CF09CEC12F03EC038F08D
:101F50003FC039F027EC14F03EC038F03FC039F0F4
:101F600053EC14F020EE06F03E50D9263F50DA2212
:101F7000DF50D8A4BEEF0FF0C0EF0FF0CEEF0FF0A0
:101F80003EC038F03FC039F0C2EC14F03EC038F02B
:101F90003FC039F00BEC10F0E4EF0FF020EE06F04C
:101FA0003E50D9263F50DA22DE04D8A4DAEF0FF0F3
:101FB000DCEF0FF0E4EF0FF03EC038F03FC039F037
:101FC000DDEC14F0E4EF0FF020EE08F03E50D926DF
:101FD0003F50DA22DECF40F0DDCF41F041C040F08B
:101FE000416A4050D76E20EE08F03E50D9263F504F
:101FF000DA22DF50D66E3EC038F03FC039F00FEC29
:1020000015F03EC038F03FC039F023EC15F0D58E06
:102010000AEF10F0120038503910D8B412EF10F057
:1020200014EF10F044EF10F046EF10F0F80ED51654
:1020300079EF10F0D550F80B0109D56E79EF10F05B
:10204000D550F80B0209D56E79EF10F0D550F80B8A
:102050000309D56E79EF10F0D550F80B0409D56E51
:1020600079EF10F0D550F80B0509D56E79EF10F027
:10207000D550F80B0609D56E79EF10F0D550F80B56
:102080000609D56E79EF10F079EF10F020EE07F029
:102090003850D9263950DA22DF503A6E3B6A3B502D
:1020A000000AD8B456EF10F044EF10F03A50000A8E
:1020B000D8B416EF10F0010AD8B41AEF10F0030AE2
:1020C000D8B420EF10F0010AD8B426EF10F0070AB8
:1020D000D8B42CEF10F0010AD8B432EF10F0030A94
:1020E000D8B438EF10F0010AD8B43EEF10F044EF46
:1020F00010F01200000E3D6E3BBE83EF10F081EF3A
:1021000010F089EF10F03A6C3B1ED8B03B2A010E5C
:102110003D6E39BE90EF10F08EEF10F096EF10F09C
:10212000386C391ED8B0392A010E3D1A000E3F6EA8
:10213000000E3E6E3A503B10D8B4A1EF10F0A3EF62
:1021400010F0CBEF10F0010E3C6EABEF10F0D8901A
:102150003A363B363C2A3BAEB0EF10F0B2EF10F00F
:10216000A7EF10F0D8903E363F363A50385C3B50DF
:102170003958D8A0BEEF10F0C0EF10F0C5EF10F046
:102180003A50385E3B50395A3E80D8903B323A3212
:102190003C2EB2EF10F03D50D8B4D1EF10F0D3EF99
:1021A00010F0D7EF10F03E6C3F1ED8B03F2A3EC073
:1021B00038F03FC039F012004B504C10D8B4E3EF68
:1021C00010F0E5EF10F018EF11F04E061CEF11F0D3
:1021D0004BC042F04CC043F04E50800F446E94EC24
:1021E00011F0516E39EF11F04BC042F04CC043F08A
:1021F0004E50C00F446E94EC11F0516E39EF11F057
:102200004BC042F04CC043F04E50940F446E94ECDF
:1022100011F0516E39EF11F04BC042F04CC043F059
:102220004E50D40F446E94EC11F0516E39EF11F012
:10223000000E516E39EF11F04D504F6E506A5050F4
:10224000000AD8B426EF11F018EF11F04F50010A30
:10225000D8B4E8EF10F0030AD8B4F4EF10F0010A94
:10226000D8B400EF11F0070AD8B40CEF11F018EF52
:1022700011F051501200010E496E42504310D8B473
:1022800044EF11F046EF11F090EF11F042C038F03A
:1022900043C039F0010E3A6EE5EC0DF0000E4A6EC7
:1022A0004A504224456E000E4320466E020E4524DD
:1022B000386E000E4620396E4AC047F044C048F0E0
:1022C000472A65EF11F0D8904832472E63EF11F09E
:1022D0004850010B3A6EE5EC0DF04A2A070E4A64AD
:1022E00074EF11F076EF11F050EF11F0010E42246F
:1022F000386E000E4320396E010E3A6EE5EC0DF09B
:10230000030EE82EFED700F0010E4224386E000EB8
:102310004320396E000E3A6EE5EC0DF092EF11F0AD
:10232000000E496E49501200010E496E4250431092
:10233000D8B49DEF11F09FEF11F0E9EF11F042C01A
:1023400038F043C039F0000E3A6EE5EC0DF0000EA7
:102350004A6E4A504224456E000E4320466E020EDD
:102360004524386E000E4620396E4AC047F044C0FE
:1023700048F0472ABEEF11F0D8904832472EBCEF04
:1023800011F04850010B3A6EE5EC0DF04A2A070EA9
:102390004A64CDEF11F0CFEF11F0A9EF11F0010E6B
:1023A0004224386E000E4320396E010E3A6EE5EC81
:1023B0000DF0030EE82EFED700F0010E4224386E19
:1023C000000E4320396E000E3A6EE5EC0DF0EBEF97
:1023D00011F0000E496E49501200000E3D6E39BEDC
:1023E000F6EF11F0F4EF11F0FCEF11F0386C391E3C
:1023F000D8B0392A010E3D6E3BBE03EF12F001EF5B
:1024000012F007EF12F03A6C3B1ED8B03B2A3A505C
:102410003B10D8B40EEF12F010EF12F034EF12F0C0
:10242000010E3C6E18EF12F0D8903A363B363C2A3B
:102430003BAE1DEF12F01FEF12F014EF12F03A5006
:10244000385C3B503958D8A028EF12F02AEF12F030
:102450002EEF12F03A50385E3B50395AD8903B324A
:102460003A323C2E1FEF12F03D50D8B43AEF12F042
:102470003CEF12F040EF12F0386C391ED8B0392A18
:1024800038C038F039C039F0120038503910D8B49B
:102490004CEF12F04EEF12F09BEF12F03A503B105F
:1024A000D8B455EF12F057EF12F09BEF12F038C08E
:1024B000D9FF39C0DAFFDF30E832E832070B3C6E73
:1024C000080E3C6066EF12F068EF12F09BEF12F01E
:1024D00038C0D9FF39C0DAFFDF30E832E832070B05
:1024E0003C6E38C0D9FF39C0DAFFDF50070B3D6EB4
:1024F0003D50020D800EF324D96E000EF420DA6EEA
:10250000DECF3EF0DDCF3FF03EC0D9FF3FC0DAFF67
:10251000DF50406E3C2A8FEF12F0D89040323C2EB4
:102520008DEF12F04050010B3AC0D9FF3BC0DAFFEB
:10253000DF6E9BEF12F012003B503C10D8B4A3EFBB
:1025400012F0A5EF12F0E9EF12F020EE02F03B508E
:10255000D9263C50DA22DF50D8A4B1EF12F0B3EF05
:1025600012F0C4EF12F020EE04F03B50D9263C509C
:10257000DA22DF50D8A4BFEF12F0C1EF12F0C4EF9F
:1025800012F0D59AE9EF12F020EE02F03B50D92676
:102590003C50DA22DE04D8A4D0EF12F0D2EF12F0D1
:1025A000E9EF12F020EE04F03B50D9263C50DA223D
:1025B000DE04D8A4DEEF12F0E0EF12F0E9EF12F043
:1025C000D58A3BC038F03CC039F027EC14F0E9EF75
:1025D00012F01200010E4F6E4B504C10D8B4F3EFB6
:1025E00012F0F5EF12F022EF13F04D504E10D8B468
:1025F000FCEF12F0FEEF12F022EF13F011EF13F0E8
:102600004BC042F04CC043F04DC0F6FF4EC0F7FF48
:10261000F86A0800F5CF44F03BEC11F04F6E4D4ADC
:102620004E2A4DC0F6FF4EC0F7FFF86A0800F5507D
:102630000009D8A41EEF13F020EF13F000EF13F001
:1026400024EF13F0000E4F6E4F501200465047100B
:10265000D8B42DEF13F02FEF13F05DEF13F0000E51
:102660004A6E4A504624426E000E4720436E5EEC8E
:1026700013F04A2A030E4A6440EF13F042EF13F0BE
:1026800031EF13F0000E4B6E4B504624486E000E97
:102690004720496E040E4824386E000E4920396EDA
:1026A00041EC0DF04B2A030E4B6459EF13F05BEF36
:1026B00013F044EF13F05DEF13F01200425043109B
:1026C000D8B465EF13F067EF13F090EF13F042C04A
:1026D000D9FF43C0DAFFDF30E832E832070B446E3F
:1026E000080E446076EF13F078EF13F090EF13F0DC
:1026F00042C038F043C039F041EC0DF0456E42C0A5
:1027000038F043C039F042C0D9FF43C0DAFF000EB1
:10271000DFBE010E3A6EE5EC0DF0456E92EF13F060
:10272000000E456E45501200010E0001DD27000E1F
:10273000DE23DF23E0235B2A3B0E5B64A2EF13F072
:10274000A4EF13F0C6EF13F0000E5B6E000EDD6F0A
:10275000000EDE6F000EDF6F000EE06F5A2A3B0E98
:102760005A64B5EF13F0B7EF13F0C6EF13F0000E95
:102770005A6E232A170E2364C0EF13F0C2EF13F032
:10278000C6EF13F0000E236EC6EF13F01200FE0E1C
:10279000F66E280EF76E000EF86E00EE80F010EE6A
:1027A0004AF00900F5CFEEFFE550E150FAE1E60E00
:1027B000F66E2A0EF76E000EF86E00EE5AF010EE6E
:1027C00013F00900F5CFEEFFE550E150FAE100EE1D
:1027D000CAF0290EEE6AE806FDE100EE01F0340EC3
:1027E000EE6AE806FDE16D906D92000131EF08F0B0
:1027F00052505310D8B4FFEF13F001EF14F026EF4E
:1028000014F056C0F6FF57C0F7FFF86A0800F550FD
:102810000009D8B40EEF14F010EF14F026EF14F006
:1028200052C04BF053C04CF054C04DF055C04EF068
:10283000DCEC10F052C04BF053C04CF056C04DF0E1
:1028400057C04EF0EAEC12F026EF14F012003850A8
:102850003910D8B42EEF14F030EF14F052EF14F01A
:1028600020EE05F03850D9263950DA22DF50D8A4AE
:102870003CEF14F03EEF14F041EF14F0D59852EF16
:1028800014F020EE05F03850D9263950DA22DE0453
:10289000D8A44DEF14F04FEF14F052EF14F0D58898
:1028A00052EF14F0120038503910D8B45AEF14F027
:1028B0005CEF14F07EEF14F020EE03F03850D926D0
:1028C0003950DA22DE04D8A468EF14F06AEF14F06D
:1028D0006DEF14F0D58C7EEF14F020EE03F038503D
:1028E000D9263950DA22DF50D8A479EF14F07BEFE3
:1028F00014F07EEF14F0D59C7EEF14F01200800FE0
:10290000810F820F830F840F890F8A0F8B0F8C0F1B
:102910008D0F920F930F940F950F960F22AA040C10
:102920000008323A333B2827000000000004DC0B8B
:10293000323A030B131B232B333B01091119616935
:102940007179020A121A222A3B6E040E3B64ABEF25
:1029500014F0ADEF14F0AFEF14F0C1EF14F03B50F2
:10296000020D8A0EF324D96E000EF420DA6EDECF4B
:1029700039F0DDCF3AF039C0D9FF3AC0DAFF38C0BC
:10298000DFFF120038503910D8B4C9EF14F0CBEF84
:1029900014F0DCEF14F020EE06F03850D926395050
:1029A000DA22DF50D8A4D7EF14F0D9EF14F0DCEF1F
:1029B00014F0D596DCEF14F0120038503910D8B46A
:1029C000E4EF14F0E6EF14F0F7EF14F020EE06F069
:1029D0003850D9263950DA22DE04D8A4F2EF14F0A8
:1029E000F4EF14F0F7EF14F0D586F7EF14F01200BF
:1029F000F29407500810D8B400EF15F002EF15F06C
:102A00000EEF15F002D80EEF15F00500FA6E075024
:102A1000FD6E0850FE6EFF6AFA5012001200385028
:102A20003910D8B416EF15F018EF15F022EF15F0A5
:102A300038C0D9FF39C0DAFFDECF07F0DDCF08F0AC
:102A400022EF15F0120038503910D8B42AEF15F0E3
:102A50002CEF15F031EF15F0F28AF28EF28C31EF97
:102A600015F0120038503910D8B439EF15F03BEF9B
:102A700015F03EEF15F0F29A3EEF15F01200356EAC
:102A8000F2903550D8A447EF15F049EF15F04BEF11
:102A900015F04BEF15F01200356EF2903550D8A4BA
:102AA00054EF15F056EF15F058EF15F058EF15F0FC
:102AB0001200356EF2903550D8A461EF15F063EF37
:102AC00015F065EF15F065EF15F01200356EF29018
:102AD0003550D8A46EEF15F070EF15F072EF15F0C9
:102AE00072EF15F012003B3701010101322A221A60
:092AF000120A022B231B130B0335
:102AFA00A1920250B36E01C0B2FF12009E90045020
:102B0A00CF6E03C0CEFF12009E9226C0CCFF1200E9
:102B1A00F0921200F0901200F2921200A1901200AC
:0A2B2A009E9412009E9C12001200FF
:020000040020DA
:08000000FFFFFFFFFFFFFFFF00
:020000040030CA
:0E000000FF02091EFF8181FF0FC00FE00F40BD
:00000001FF
