:0400000007EF00F016
:0A0008007D8229ED10F049EF13F09E
:10100000003738392F3435362A3132332D23303DED
:051010002B2569000022
:101016004550800B4E6E45504524506E44AE16EF3B
:1010260008F018EF08F019EF08F050805050D8B4C7
:101036001FEF08F021EF08F036EF08F05028D8A48B
:1010460027EF08F029EF08F031EF08F0000E426EA6
:10105600000E436E000E446E000E456E448E000E6A
:10106600456E3EEF08F0000E426E000E436E000E17
:10107600446E000E456E4950800B4F6E4E504F1811
:10108600D8B448EF08F04AEF08F04BEF08F04E8C62
:10109600495049244F6E48AE53EF08F055EF08F01B
:1010A60056EF08F04F804F50D8B45CEF08F05EEF73
:1010B60008F073EF08F04F28D8A464EF08F066EF45
:1010C60008F06EEF08F0000E466E000E476E000E3A
:1010D600486E000E496E488E000E496E7BEF08F092
:1010E600000E466E000E476E000E486E000E496EEC
:1010F60050504F5CD8B082EF08F084EF08F0ABEFA9
:1011060008F04EAC89EF08F08BEF08F08DEF08F091
:10111600800E4E1A50C051F04FC050F051C04FF0E3
:1011260042C051F046C042F051C046F043C051F0B3
:1011360047C043F051C047F044C051F048C044F0A6
:1011460051C048F045C051F049C045F051C049F082
:10115600000E516E50504FC04AF04B6A4A5E000E68
:101166004B5A4BBEC0EF08F04B5009E11A0E4A5CD1
:10117600D8A0C0EF08F0C2EF08F0F9EF08F042502F
:10118600431044104510D8A4CBEF08F0CEEF08F07A
:10119600010ECFEF08F0000E516E000E426E000EEB
:1011A600436E000E446E000E456E4FC050F002EFC7
:1011B60009F051A0E1EF08F0E3EF08F0E9EF08F0DD
:1011C600D89051300109516EEBEF08F0D8905132AA
:1011D60042A0F0EF08F0F2EF08F0F3EF08F0518EBE
:1011E60045344532443243324232502A4F50505CE5
:1011F600D8A000EF09F002EF09F0DCEF08F04EBCD2
:1012060007EF09F009EF09F049EF09F05050D8A4AB
:101216000FEF09F011EF09F01BEF09F0000E426E17
:10122600000E436E000E446E000E456E6AEF0AF025
:1012360046504226475043224850442249504522B0
:1012460045A028EF09F02AEF09F0D6EF09F051A0E2
:101256002FEF09F031EF09F037EF09F0D890513050
:101266000109516E39EF09F0D890513242A03EEF94
:1012760009F040EF09F041EF09F0518E453445324F
:10128600443243324232502AD6EF09F04650425C8D
:1012960047504358485044584550800A4A6E495072
:1012A600800A4A58D8B05AEF09F05CEF09F087EF88
:1012B60009F04250465C4A6E435047584B6E4450C4
:1012C60048584C6E455049584D6EFF0E4A24426EA2
:1012D600FF0E4B20436EFF0E4C20446EFF0E4D203A
:1012E600456E800E4E1A516C5150D8A47DEF09F010
:1012F6007FEF09F08FEF09F0010E4226000E432220
:10130600442245228FEF09F04650425E4750435A29
:101316004850445A4950455A4250431044104510CB
:10132600D8A498EF09F09AEF09F0CFEF09F05150E1
:10133600D8A4A0EF09F0A2EF09F0CFEF09F0000E54
:10134600426E000E436E000E446E000E456E6AEF4E
:101356000AF0D890423643364436453651AEB6EF9B
:1013660009F0B8EF09F0B9EF09F0428051A0BEEFDD
:1013760009F0C0EF09F0C4EF09F0D8805136C6EF86
:1013860009F0D89051365050D8B4CCEF09F0CEEFD2
:1013960009F0CFEF09F0500644AED4EF09F0D6EFCE
:1013A60009F0ACEF09F0000E4F6E51AEDDEF09F01B
:1013B600DFEF09F0F7EF09F051C04AF07F0E4A1649
:1013C600D8B4E8EF09F0EAEF09F0EEEF09F0010E04
:1013D6004F6EF7EF09F042A0F3EF09F0F5EF09F0D1
:1013E600F7EF09F0EAEF09F04F50D8B4FDEF09F036
:1013F600FFEF09F02AEF0AF0010E4226000E432203
:101406004422452245A00AEF0AF00CEF0AF02AEF23
:101416000AF042C04AF043C04BF044C04CF045C00D
:101426004DF04D344D324C324B324A324AC042F0C6
:101436004BC043F04CC044F04DC045F05028D8B4E2
:1014460027EF0AF029EF0AF02AEF0AF0502A50286F
:10145600D8B430EF0AF032EF0AF03AEF0AF0505003
:10146600D8A438EF0AF03AEF0AF04CEF0AF0000E73
:10147600426E000E436E000E446E000E456E5050D6
:10148600D8A448EF0AF04AEF0AF04CEF0AF0000E33
:101496004E6E50A051EF0AF053EF0AF056EF0AF0E5
:1014A600448E57EF0AF0449ED8905030456E4EAEAB
:1014B6005FEF0AF061EF0AF062EF0AF0458E42C074
:1014C60042F043C043F044C044F045C045F012002A
:1014D6001350800B1C6E13501324226E12AE76EF3F
:1014E6000AF078EF0AF079EF0AF022802250D8B499
:1014F6007FEF0AF081EF0AF094EF0AF02228D8A4D1
:1015060087EF0AF089EF0AF091EF0AF0000E106EED
:10151600000E116E000E126E000E136E128E9CEFF0
:101526000AF0000E106E000E116E000E126E000E06
:10153600136E1750800B1C1A17501724216E16AE07
:10154600A7EF0AF0A9EF0AF0AAEF0AF021802150CE
:10155600D8B4B0EF0AF0B2EF0AF0C5EF0AF02128CE
:10156600D8A4B8EF0AF0BAEF0AF0C2EF0AF0000EFC
:10157600146E000E156E000E166E000E176E168E89
:10158600CDEF0AF0000E146E000E156E000E166EEC
:10159600000E176E2150D8B4D3EF0AF0D5EF0AF03B
:1015A600DDEF0AF02250D8A4DBEF0AF0DDEF0AF0F7
:1015B600E7EF0AF0000E106E000E116E000E126EAE
:1015C600000E136E7FEF0CF016501002F3CF27F0CB
:1015D600F4CF28F027501D6E1E6A1F6A206A285015
:1015E600236E246A256A266A15501102F3CF27F066
:1015F600F4CF28F027501D26000E1E221F2220227F
:1016060028502326000E24222522262214501202B8
:10161600F3CF27F0F4CF28F027501D26000E1E2208
:101626001F22202228502326000E2422252226228D
:101636001FC020F01EC01FF01DC01EF01D6A1450F2
:101646001102F3CF27F0F4CF28F027501D2628509B
:101656001E22000E1F22000E202215501002F3CF6C
:1016660027F0F4CF28F027501D2628501E22000E02
:101676001F22000E20221FC020F01EC01FF01DC01A
:101686001EF01D6A14501002F3CF27F0F4CF28F095
:1016960027501D2628501E22000E1F22000E202233
:1016A60016501102F3CF27F0F4CF28F02750232647
:1016B60028502422000E2522000E26221550120242
:1016C600F3CF27F0F4CF28F02750232628502422E2
:1016D600000E2522000E262216501202F3CF27F006
:1016E600F4CF28F02750186E2850196E1A6A1B6A14
:1016F6001AC01BF019C01AF018C019F0186A185051
:101706002326195024221A5025221B5026221DC09A
:1017160018F01EC019F01FC01AF020C01BF0190ED9
:101726009AEF0BF0D8901B321A3219321832E82E83
:1017360095EF0BF018502326195024221A50252213
:101746001B5026221FC020F01EC01FF01DC01EF019
:101756001D6A215022C018F0196A1826000E192297
:10176600820E1824276EFF0E1920286ED0EF0BF07C
:10177600D890233624362536263620AEC5EF0BF014
:10178600C7EF0BF0C8EF0BF02380D8901D361E363E
:101796001F3620362706D8A0280625AED5EF0BF033
:1017A600D7EF0BF0BBEF0BF0000E216E20AEDEEF95
:1017B6000BF0E0EF0BF004EF0CF0FF0E1D14186EAB
:1017C600FF0E1E14196EFF0E1F141A6E7F0E2014C4
:1017D6001B6E185019101A101B10D8B4F5EF0BF029
:1017E600F7EF0BF0FBEF0BF0010E216E04EF0CF0A0
:1017F60023A000EF0CF002EF0CF004EF0CF0F7EF73
:101806000BF02150D8B40AEF0CF00CEF0CF030EFCF
:101816000CF0010E2326000E24222522262226A0C5
:1018260017EF0CF019EF0CF030EF0CF023C018F0A6
:1018360024C019F025C01AF026C01BF01B341B3239
:101846001A321932183218C023F019C024F01AC0FF
:1018560025F01BC026F0274A282A28BE3BEF0CF0AD
:10186600285008E12728D8A03BEF0CF03DEF0CF0FC
:1018760047EF0CF0000E236E000E246E800E256ED0
:101886007F0E266E75EF0CF028BE54EF0CF0285034
:1018960006E12704D8B052EF0CF054EF0CF060EFDD
:1018A6000CF0000E236E000E246E000E256E000E48
:1018B600266E000E1C6E75EF0CF027C022F0FF0E90
:1018C6002316FF0E24167F0E2516000E261622A0BE
:1018D6006FEF0CF071EF0CF072EF0CF0258ED890D4
:1018E6002230266E1C50261223C010F024C011F0A0
:1018F60025C012F026C013F012005C505D10D8B45B
:1019060087EF0CF089EF0CF04AEF0EF020EE01F0B5
:101916005C50D9265D50DA22DE04D8A495EF0CF08F
:1019260097EF0CF09AEF0CF0C68AD1EF0CF020EE90
:1019360001F05C50D9265D50DA22DF50D8A4A6EF1C
:101946000CF0A8EF0CF0ABEF0CF0C69AD1EF0CF050
:10195600D1EF0CF0C650F00B0609C66EFAEF0CF08C
:10196600C650F00B0709C66EFAEF0CF0C650F00B26
:101976000809C66EFAEF0CF0C650F00B0B09C66EDE
:10198600FAEF0CF0C650F00B0E09C66EFAEF0CF02B
:101996000F0EC612FAEF0CF0FAEF0CF05CC0D9FF8E
:1019A6005DC0DAFFDF505E6E5F6A5F50000AD8B432
:1019B600DFEF0CF0CFEF0CF05E50060AD8B4ADEFB7
:1019C6000CF0010AD8B4B3EF0CF00F0AD8B4B9EF93
:1019D6000CF0030AD8B4BFEF0CF0050AD8B4C5EF73
:1019E6000CF0010AD8B4CBEF0CF0CFEF0CF020EEE0
:1019F60002F05C50D9265D50DA22DE50DE10D8B4F3
:101A060007EF0DF009EF0DF04CEF0EF0000E466EED
:101A1600000E476E800E486EBF0E496E000E146EA5
:101A2600000E156E800E166E400E176E20EE02F03A
:101A36005C50D9265D50DA22DECF5EF0DDCF5FF056
:101A46005EC0D9FF5FC0DAFFDECF02F0DECF03F063
:101A5600DECF04F0DECF05F0000EECEC11F002C094
:101A660010F003C011F004C012F005C013F06BECC7
:101A76000AF010C02DF011C02EF012C02FF013C0C6
:101A860030F0000E296E240E2A6E740E2B6E4A0E4E
:101A96002C6E5CEC0EF029C042F02AC043F02BC03D
:101AA60044F02CC045F00BEC08F042C052F043C0A5
:101AB60053F044C054F045C055F0C6EC12F05250F5
:101AC600C86E20EE02F05C50D9265D50DA2210EE88
:101AD60004F0DE50E126DD50E222E604D8A476EFDB
:101AE6000DF078EF0DF07BEF0DF0C58892EF0DF05D
:101AF60020EE02F05C50D9265D50DA2210EE04F09A
:101B0600DE50E126DD50E222E750D8A48DEF0DF03D
:101B16008FEF0DF092EF0DF0C59892EF0DF020EEDD
:101B260002F05C50D9265D50DA2210EE05F0DE5048
:101B3600E126DD50E222E604D8A4A4EF0DF0A6EFDC
:101B46000DF0A9EF0DF0C586C0EF0DF020EE02F006
:101B56005C50D9265D50DA2210EE05F0DE50E12603
:101B6600DD50E222E750D8A4BBEF0DF0BDEF0DF03B
:101B7600C0EF0DF0C596C0EF0DF020EE02F05C5000
:101B8600D9265D50DA2210EE06F0DE50E126DD5051
:101B9600E222E604D8A4D2EF0DF0D4EF0DF0D7EF91
:101BA6000DF0C586EEEF0DF020EE02F05C50D92662
:101BB6005D50DA2210EE06F0DE50E126DD50E2221C
:101BC600E750D8A4E9EF0DF0EBEF0DF0EEEF0DF0D6
:101BD600C596EEEF0DF020EE02F05C50D9265D5072
:101BE600DA2210EE07F0DE50E126DD50E222E604AE
:101BF600D8A400EF0EF002EF0EF005EF0EF0C58050
:101C06001CEF0EF020EE02F05C50D9265D50DA2271
:101C160010EE07F0DE50E126DD50E222E750D8A4B0
:101C260017EF0EF019EF0EF01CEF0EF0C5901CEF3B
:101C36000EF020EE02F05C50D9265D50DA2210EE4E
:101C460008F0DE50E126DD50E222E604D8A42EEFAD
:101C56000EF030EF0EF033EF0EF0C5825BEF0EF0B4
:101C660020EE02F05C50D9265D50DA2210EE08F024
:101C7600DE50E126DD50E222E750D8A445EF0EF013
:101C860047EF0EF04AEF0EF0C5925BEF0EF05BEFFA
:101C96000EF020EE04F05C50D9265D50DA22DE50BC
:101CA600DE10D8B459EF0EF05BEF0EF04AEF0EF0EF
:101CB60012002C50800B396E2C502C24406E2BAE0B
:101CC60067EF0EF069EF0EF06AEF0EF040804050BD
:101CD600D8B470EF0EF072EF0EF087EF0EF04028DA
:101CE600D8A478EF0EF07AEF0EF082EF0EF0000E29
:101CF600296E000E2A6E000E2B6E000E2C6E2B8E99
:101D0600000E2C6E8FEF0EF0000E296E000E2A6E5E
:101D1600000E2B6E000E2C6E3050800B391A305090
:101D26003024416E2FAE9AEF0EF09CEF0EF09DEF31
:101D36000EF041804150D8B4A3EF0EF0A5EF0EF09F
:101D4600BAEF0EF04128D8A4ABEF0EF0ADEF0EF0CF
:101D5600B5EF0EF0000E2D6E000E2E6E000E2F6EDD
:101D6600000E306E2F8E000E306EC2EF0EF0000E9B
:101D76002D6E000E2E6E000E2F6E000E306E2D5044
:101D86002E102F103010D8A4CBEF0EF0CDEF0EF0A2
:101D9600E5EF0EF0000E296E000E2A6E000E2B6E79
:101DA600000E2C6E800E2B127F0E2C1239502C1228
:101DB60029C029F02AC02AF02BC02BF02CC02CF009
:101DC60028EF10F04050D8A4EBEF0EF0EDEF0EF038
:101DD600F7EF0EF0000E296E000E2A6E000E2B6E27
:101DE600000E2C6E28EF10F0415040C031F0326AE0
:101DF600315E000E325A7F0E31243A6E000E3220CA
:101E06003B6E29C035F02AC036F02BC037F02CC007
:101E160038F0000E296E000E2A6E000E2B6E000E94
:101E26002C6E000E3C6E000E3D6E000E3E6E000ED9
:101E36003F6E000E416E58EF0FF04150D8B426EFBA
:101E46000FF028EF0FF03FEF0FF0D890353636360B
:101E560037363836D89029362A362B362C363FAECA
:101E660037EF0FF039EF0FF03AEF0FF02980D890E7
:101E76003C363D363E363F362D50355C2E50365874
:101E86002F50375830503858D8A04CEF0FF04EEF3F
:101E96000FF057EF0FF03F8C2D50355E2E50365A0F
:101EA6002F50375A3050385A412A190E41645EEF86
:101EB6000FF060EF0FF020EF0FF0355036103710AF
:101EC6003810D8B469EF0FF06BEF0FF083EF0FF017
:101ED6003C8083EF0FF0D89029362A362B362C36E5
:101EE6003FAE78EF0FF07AEF0FF07BEF0FF029801F
:101EF600D8903C363D363E363F363A06D8A03B06AD
:101F06002BAE88EF0FF08AEF0FF06EEF0FF0000E9A
:101F1600416E3FAE91EF0FF093EF0FF0B7EF0FF07A
:101F2600FF0E3C14316EFF0E3D14326EFF0E3E1452
:101F3600336E7F0E3F14346E31503210331034102E
:101F4600D8B4A8EF0FF0AAEF0FF0AEEF0FF0010E26
:101F5600416EB7EF0FF029A0B3EF0FF0B5EF0FF01A
:101F6600B7EF0FF0AAEF0FF04150D8B4BDEF0FF066
:101F7600BFEF0FF0E3EF0FF0010E2926000E2A2225
:101F86002B222C222CA0CAEF0FF0CCEF0FF0E3EFA0
:101F96000FF029C031F02AC032F02BC033F02CC02C
:101FA60034F03434343233323232313231C029F003
:101FB60032C02AF033C02BF034C02CF03A4A3B2A08
:101FC6003BBEEEEF0FF03B5008E13A28D8A0EEEF0B
:101FD6000FF0F0EF0FF0FBEF0FF0000E3B6E3A68DC
:101FE600000E296E000E2A6E000E2B6E000E2C6E51
:101FF6003BBE08EF10F03B5006E13A04D8B006EFBE
:1020060010F008EF10F016EF10F0000E3B6E000E09
:102016003A6E000E296E000E2A6E000E2B6E000E12
:102026002C6E000E396E3AC040F040A01DEF10F045
:102036001FEF10F022EF10F02B8E23EF10F02B9EE7
:10204600D89040302C6ED9EF0EF012000600F2A8A0
:102056002FEF10F031EF10F03AEF10F0F2A236EF5A
:1020660010F038EF10F03AEF10F00DEC14F0F0A687
:102076003FEF10F041EF10F04AEF10F0F0A046EFFE
:1020860010F048EF10F04AEF10F00BEC14F0F0A847
:102096004FEF10F051EF10F05AEF10F0F0A256EF9C
:1020A60010F058EF10F05AEF10F009EC14F0F2A609
:1020B6005FEF10F061EF10F07CEF10F0F2A066EF2A
:1020C60010F068EF10F07CEF10F081A86DEF10F0C3
:1020D6006FEF10F07CEF10F07B04D8A475EF10F0D2
:1020E60077EF10F07CEF10F0000E7B6E000EE1EC47
:1020F60013F0F2A681EF10F083EF10F09EEF10F0D0
:10210600F2A088EF10F08AEF10F09EEF10F081B881
:102116008FEF10F091EF10F09EEF10F07B50D8A4E7
:1021260097EF10F099EF10F09EEF10F0010E7B6E16
:10213600010EE1EC13F0F2A6A3EF10F0A5EF10F0FC
:10214600C0EF10F0F2A0AAEF10F0ACEF10F0C0EF65
:1021560010F081AAB1EF10F0B3EF10F0C0EF10F05D
:102166007A04D8A4B9EF10F0BBEF10F0C0EF10F06E
:10217600000E7A6E000ED4EC13F0F2A6C5EF10F046
:10218600C7EF10F0E2EF10F0F2A0CCEF10F0CEEFB8
:1021960010F0E2EF10F081BAD3EF10F0D5EF10F0A7
:1021A600E2EF10F07A50D8A4DBEF10F0DDEF10F07C
:1021B600E2EF10F0010E7A6E010ED4EC13F0F2A6E7
:1021C600E7EF10F0E9EF10F004EF11F0F2A0EEEFF8
:1021D60010F0F0EF10F004EF11F081ACF5EF10F015
:1021E600F7EF10F004EF11F07904D8A4FDEF10F02A
:1021F600FFEF10F004EF11F0000E796E000EC7EC41
:1022060013F0F2A609EF11F00BEF11F026EF11F023
:10221600F2A010EF11F012EF11F026EF11F081BCD1
:1022260017EF11F019EF11F026EF11F07950D8A43D
:102236001FEF11F021EF11F026EF11F0010E796E6C
:10224600010EC7EC13F0F2A62BEF11F02DEF11F0F3
:1022560048EF11F0F2A032EF11F034EF11F048EF31
:1022660011F081AE39EF11F03BEF11F048EF11F0AC
:102276007804D8A441EF11F043EF11F048EF11F0C4
:10228600000E786E000EBAEC13F0F2A64DEF11F0C8
:102296004FEF11F06AEF11F0F2A054EF11F056EF84
:1022A60011F06AEF11F081BE5BEF11F05DEF11F0F6
:1022B6006AEF11F07850D8A463EF11F065EF11F0D2
:1022C6006AEF11F0010E786E010EBAEC13F09DACB8
:1022D6006FEF11F071EF11F07AEF11F09EAC76EF1F
:1022E60011F078EF11F07AEF11F013EC14F0F2AA76
:1022F6007FEF11F081EF11F08AEF11F0F2A486EF73
:1023060011F088EF11F08AEF11F007EC14F09DA0A0
:102316008FEF11F091EF11F09AEF11F09EA096EF6A
:1023260011F098EF11F09AEF11F0FAEC13F09DA26C
:102336009FEF11F0A1EF11F0AAEF11F09EA2A6EF08
:1023460011F0A8EF11F0AAEF11F000EC14F0A0A222
:10235600AFEF11F0B1EF11F0BAEF11F0A1A2B6EFA5
:1023660011F0B8EF11F0BAEF11F0F4EC13F09DA4F0
:10237600BFEF11F0C1EF11F0CAEF11F09EA4C6EF46
:1023860011F0C8EF11F0CAEF11F011EC14F0A0A093
:10239600CFEF11F0D1EF11F0DAEF11F0A1A0D6EFE7
:1023A60011F0D8EF11F0DAEF11F00FEC14F09DA850
:1023B600DFEF11F0E1EF11F0EAEF11F09EA8E6EF82
:1023C60011F0E8EF11F0EAEF11F015EC14F07D9240
:1023D60011000A6E0A50D8B4F3EF11F0F5EF11F0C0
:1023E60017EF12F005BEFCEF11F0FAEF11F017EF40
:1023F60012F002C006F003C007F004C008F005C0E2
:1024060009F0061E071E081E091E062A000E0722D0
:102416000822092206C00CF007C00DF008C00EF015
:1024260009C00FF01FEF12F002C00CF003C00DF050
:1024360004C00EF005C00FF0025003100410051082
:10244600D8A428EF12F02AEF12F034EF12F0000EA3
:10245600026E000E036E000E046E000E056EC5EFD2
:1024660012F0960E0B6E3EEF12F00B2AD8900F323A
:102476000E320D320C32000E0C14066E000E0D14C8
:10248600076E000E0E14086EFE0E0F14096E06502F
:10249600071008100910D8A453EF12F055EF12F0E8
:1024A60038EF12F063EF12F00B2A010E0C26000E25
:1024B6000D220E220F22D8900F320E320D320C3220
:1024C600000E0C14066E000E0D14076E000E0E1490
:1024D600086EFF0E0F14096E06500710081009103B
:1024E600D8A478EF12F07AEF12F057EF12F082EFDD
:1024F60012F00B06D8900C360D360E360F360EBE81
:1025060087EF12F089EF12F091EF12F0020E0B60D6
:102516008FEF12F091EF12F07CEF12F00BB096EF06
:1025260012F098EF12F099EF12F00E9ED8900B323F
:102536000BC006F0076A086A096A06C009F0086A4D
:10254600076A066A06500C1207500D1208500E1242
:1025560009500F120A50D8B4B3EF12F0B5EF12F0CB
:10256600BDEF12F005BEBCEF12F0BAEF12F0BDEFF0
:1025760012F00F8E0CC002F00DC003F00EC004F076
:102586000FC005F01200543455345B6E5B50D8A46E
:10259600CFEF12F0D1EF12F0DBEF12F0000E526E19
:1025A600000E536E000E546E000E556E48EF13F07B
:1025B60052C056F053C057F054C058F055C059F0A9
:1025C600200EEBEF12F0D89059325832573256326D
:1025D600E82EE6EF12F056505A6E548EFF0E521643
:1025E600FF0E5316FF0E5416000E5516960E5B5E22
:1025F6005BBE02EF13F000EF13F018EF13F05B5021
:10260600800A970FD8B00AEF13F00CEF13F00EEF15
:1026160013F0D1EF12F0D890553254325332523271
:102626005B3E0EEF13F030EF13F01F0E5B641EEFF0
:1026360013F020EF13F028EF13F0D1EF12F0D8903B
:1026460052365336543655365B065B50D8A42EEFB9
:1026560013F030EF13F022EF13F05A50D8B436EFE0
:1026660013F038EF13F040EF13F0551E541E531EAF
:10267600526C000E53225422552252C052F053C0BF
:1026860053F054C054F055C055F01200360EF66E95
:10269600270EF76E000EF86E00EE80F010EE3DF09D
:1026A6000900F5CFEEFFE550E150FAE1080EF66EAF
:1026B600280EF76E000EF86E00EE78F010EE05F0BC
:1026C6000900F5CFEEFFE550E150FAE100EEBDF06E
:1026D6001C0EEE6AE806FDE100EE60F0180EEE6AEA
:1026E600E806FDE17D907D9200017AEF13F0B10ED0
:1026F6005C6E000E5D6E80EC0CF0C78E010E026EF5
:102706007C0E036E000E046E040EEEEC13F0060E45
:102716000001DA6F130ED96FAD0EE82EFED7D92F52
:10272600FCD7DA2FFAD700D081EF13F007EF00F0CD
:10273600800F810F820F830F840F890F8A0F8B0FF3
:102746008C0F8D0F920F930F940F950F960F323AB1
:10275600030B131B232B333BA08601000000010152
:0D276600010801A8000000020A121A222A30
:10277400016EF2900150D8A4C2EF13F0C4EF13F02D
:10278400C6EF13F0C6EF13F01200016EF290015081
:10279400D8A4CFEF13F0D1EF13F0D3EF13F0D3EFAE
:1027A40013F01200016EF2900150D8A4DCEF13F084
:1027B400DEEF13F0E0EF13F0E0EF13F01200016E20
:1027C400F2900150D8A4E9EF13F0EBEF13F0EDEF22
:1027D40013F0EDEF13F01200056E055005240210FE
:1027E400C96E1200A1926150B36E60C0B2FF1200B4
:1027F4009E906350CF6E62C0CEFF12009E9270C056
:09280400CCFF12000101010101E9
:10280E00F2941200F0921200F0901200F292120066
:0E281E00A19012009E9412009E9C12001200C7
:020000040020DA
:08000000FFFFFFFFFFFFFFFF00
:020000040030CA
:0E000000FF02091EFF8181FF0FC00FE00F40BD
:00000001FF
