:0400000007EF00F016
:0A0008007D8223ED10F075EF13F078
:10100000003738392F3435362A3132332D23303DED
:051010002B2569000022
:101016004550800B4E6E45504524506E44AE16EF3B
:1010260008F018EF08F019EF08F050805050D8B4C7
:101036001FEF08F021EF08F036EF08F05028D8A48B
:1010460027EF08F029EF08F031EF08F0000E426EA6
:10105600000E436E000E446E000E456E448E000E6A
:10106600456E3EEF08F0000E426E000E436E000E17
:10107600446E000E456E4950800B4F6E4E504F1811
:10108600D8B448EF08F04AEF08F04BEF08F04E8C62
:10109600495049244F6E48AE53EF08F055EF08F01B
:1010A60056EF08F04F804F50D8B45CEF08F05EEF73
:1010B60008F073EF08F04F28D8A464EF08F066EF45
:1010C60008F06EEF08F0000E466E000E476E000E3A
:1010D600486E000E496E488E000E496E7BEF08F092
:1010E600000E466E000E476E000E486E000E496EEC
:1010F60050504F5CD8B082EF08F084EF08F0ABEFA9
:1011060008F04EAC89EF08F08BEF08F08DEF08F091
:10111600800E4E1A50C051F04FC050F051C04FF0E3
:1011260042C051F046C042F051C046F043C051F0B3
:1011360047C043F051C047F044C051F048C044F0A6
:1011460051C048F045C051F049C045F051C049F082
:10115600000E516E50504FC04AF04B6A4A5E000E68
:101166004B5A4BBEC0EF08F04B5009E11A0E4A5CD1
:10117600D8A0C0EF08F0C2EF08F0F9EF08F042502F
:10118600431044104510D8A4CBEF08F0CEEF08F07A
:10119600010ECFEF08F0000E516E000E426E000EEB
:1011A600436E000E446E000E456E4FC050F002EFC7
:1011B60009F051A0E1EF08F0E3EF08F0E9EF08F0DD
:1011C600D89051300109516EEBEF08F0D8905132AA
:1011D60042A0F0EF08F0F2EF08F0F3EF08F0518EBE
:1011E60045344532443243324232502A4F50505CE5
:1011F600D8A000EF09F002EF09F0DCEF08F04EBCD2
:1012060007EF09F009EF09F049EF09F05050D8A4AB
:101216000FEF09F011EF09F01BEF09F0000E426E17
:10122600000E436E000E446E000E456E6AEF0AF025
:1012360046504226475043224850442249504522B0
:1012460045A028EF09F02AEF09F0D6EF09F051A0E2
:101256002FEF09F031EF09F037EF09F0D890513050
:101266000109516E39EF09F0D890513242A03EEF94
:1012760009F040EF09F041EF09F0518E453445324F
:10128600443243324232502AD6EF09F04650425C8D
:1012960047504358485044584550800A4A6E495072
:1012A600800A4A58D8B05AEF09F05CEF09F087EF88
:1012B60009F04250465C4A6E435047584B6E4450C4
:1012C60048584C6E455049584D6EFF0E4A24426EA2
:1012D600FF0E4B20436EFF0E4C20446EFF0E4D203A
:1012E600456E800E4E1A516C5150D8A47DEF09F010
:1012F6007FEF09F08FEF09F0010E4226000E432220
:10130600442245228FEF09F04650425E4750435A29
:101316004850445A4950455A4250431044104510CB
:10132600D8A498EF09F09AEF09F0CFEF09F05150E1
:10133600D8A4A0EF09F0A2EF09F0CFEF09F0000E54
:10134600426E000E436E000E446E000E456E6AEF4E
:101356000AF0D890423643364436453651AEB6EF9B
:1013660009F0B8EF09F0B9EF09F0428051A0BEEFDD
:1013760009F0C0EF09F0C4EF09F0D8805136C6EF86
:1013860009F0D89051365050D8B4CCEF09F0CEEFD2
:1013960009F0CFEF09F0500644AED4EF09F0D6EFCE
:1013A60009F0ACEF09F0000E4F6E51AEDDEF09F01B
:1013B600DFEF09F0F7EF09F051C04AF07F0E4A1649
:1013C600D8B4E8EF09F0EAEF09F0EEEF09F0010E04
:1013D6004F6EF7EF09F042A0F3EF09F0F5EF09F0D1
:1013E600F7EF09F0EAEF09F04F50D8B4FDEF09F036
:1013F600FFEF09F02AEF0AF0010E4226000E432203
:101406004422452245A00AEF0AF00CEF0AF02AEF23
:101416000AF042C04AF043C04BF044C04CF045C00D
:101426004DF04D344D324C324B324A324AC042F0C6
:101436004BC043F04CC044F04DC045F05028D8B4E2
:1014460027EF0AF029EF0AF02AEF0AF0502A50286F
:10145600D8B430EF0AF032EF0AF03AEF0AF0505003
:10146600D8A438EF0AF03AEF0AF04CEF0AF0000E73
:10147600426E000E436E000E446E000E456E5050D6
:10148600D8A448EF0AF04AEF0AF04CEF0AF0000E33
:101496004E6E50A051EF0AF053EF0AF056EF0AF0E5
:1014A600448E57EF0AF0449ED8905030456E4EAEAB
:1014B6005FEF0AF061EF0AF062EF0AF0458E42C074
:1014C60042F043C043F044C044F045C045F012002A
:1014D6001350800B1C6E13501324226E12AE76EF3F
:1014E6000AF078EF0AF079EF0AF022802250D8B499
:1014F6007FEF0AF081EF0AF094EF0AF02228D8A4D1
:1015060087EF0AF089EF0AF091EF0AF0000E106EED
:10151600000E116E000E126E000E136E128E9CEFF0
:101526000AF0000E106E000E116E000E126E000E06
:10153600136E1750800B1C1A17501724216E16AE07
:10154600A7EF0AF0A9EF0AF0AAEF0AF021802150CE
:10155600D8B4B0EF0AF0B2EF0AF0C5EF0AF02128CE
:10156600D8A4B8EF0AF0BAEF0AF0C2EF0AF0000EFC
:10157600146E000E156E000E166E000E176E168E89
:10158600CDEF0AF0000E146E000E156E000E166EEC
:10159600000E176E2150D8B4D3EF0AF0D5EF0AF03B
:1015A600DDEF0AF02250D8A4DBEF0AF0DDEF0AF0F7
:1015B600E7EF0AF0000E106E000E116E000E126EAE
:1015C600000E136E7FEF0CF016501002F3CF27F0CB
:1015D600F4CF28F027501D6E1E6A1F6A206A285015
:1015E600236E246A256A266A15501102F3CF27F066
:1015F600F4CF28F027501D26000E1E221F2220227F
:1016060028502326000E24222522262214501202B8
:10161600F3CF27F0F4CF28F027501D26000E1E2208
:101626001F22202228502326000E2422252226228D
:101636001FC020F01EC01FF01DC01EF01D6A1450F2
:101646001102F3CF27F0F4CF28F027501D2628509B
:101656001E22000E1F22000E202215501002F3CF6C
:1016660027F0F4CF28F027501D2628501E22000E02
:101676001F22000E20221FC020F01EC01FF01DC01A
:101686001EF01D6A14501002F3CF27F0F4CF28F095
:1016960027501D2628501E22000E1F22000E202233
:1016A60016501102F3CF27F0F4CF28F02750232647
:1016B60028502422000E2522000E26221550120242
:1016C600F3CF27F0F4CF28F02750232628502422E2
:1016D600000E2522000E262216501202F3CF27F006
:1016E600F4CF28F02750186E2850196E1A6A1B6A14
:1016F6001AC01BF019C01AF018C019F0186A185051
:101706002326195024221A5025221B5026221DC09A
:1017160018F01EC019F01FC01AF020C01BF0190ED9
:101726009AEF0BF0D8901B321A3219321832E82E83
:1017360095EF0BF018502326195024221A50252213
:101746001B5026221FC020F01EC01FF01DC01EF019
:101756001D6A215022C018F0196A1826000E192297
:10176600820E1824276EFF0E1920286ED0EF0BF07C
:10177600D890233624362536263620AEC5EF0BF014
:10178600C7EF0BF0C8EF0BF02380D8901D361E363E
:101796001F3620362706D8A0280625AED5EF0BF033
:1017A600D7EF0BF0BBEF0BF0000E216E20AEDEEF95
:1017B6000BF0E0EF0BF004EF0CF0FF0E1D14186EAB
:1017C600FF0E1E14196EFF0E1F141A6E7F0E2014C4
:1017D6001B6E185019101A101B10D8B4F5EF0BF029
:1017E600F7EF0BF0FBEF0BF0010E216E04EF0CF0A0
:1017F60023A000EF0CF002EF0CF004EF0CF0F7EF73
:101806000BF02150D8B40AEF0CF00CEF0CF030EFCF
:101816000CF0010E2326000E24222522262226A0C5
:1018260017EF0CF019EF0CF030EF0CF023C018F0A6
:1018360024C019F025C01AF026C01BF01B341B3239
:101846001A321932183218C023F019C024F01AC0FF
:1018560025F01BC026F0274A282A28BE3BEF0CF0AD
:10186600285008E12728D8A03BEF0CF03DEF0CF0FC
:1018760047EF0CF0000E236E000E246E800E256ED0
:101886007F0E266E75EF0CF028BE54EF0CF0285034
:1018960006E12704D8B052EF0CF054EF0CF060EFDD
:1018A6000CF0000E236E000E246E000E256E000E48
:1018B600266E000E1C6E75EF0CF027C022F0FF0E90
:1018C6002316FF0E24167F0E2516000E261622A0BE
:1018D6006FEF0CF071EF0CF072EF0CF0258ED890D4
:1018E6002230266E1C50261223C010F024C011F0A0
:1018F60025C012F026C013F012005C505D10D8B45B
:1019060087EF0CF089EF0CF044EF0EF020EE01F0BB
:101916005C50D9265D50DA22DE04D8A495EF0CF08F
:1019260097EF0CF09AEF0CF0C68AD1EF0CF020EE90
:1019360001F05C50D9265D50DA22DF50D8A4A6EF1C
:101946000CF0A8EF0CF0ABEF0CF0C69AD1EF0CF050
:10195600D1EF0CF0C650F00B0609C66EFAEF0CF08C
:10196600C650F00B0709C66EFAEF0CF0C650F00B26
:101976000809C66EFAEF0CF0C650F00B0B09C66EDE
:10198600FAEF0CF0C650F00B0E09C66EFAEF0CF02B
:101996000F0EC612FAEF0CF0FAEF0CF05CC0D9FF8E
:1019A6005DC0DAFFDF505E6E5F6A5F50000AD8B432
:1019B600DFEF0CF0CFEF0CF05E50060AD8B4ADEFB7
:1019C6000CF0010AD8B4B3EF0CF00F0AD8B4B9EF93
:1019D6000CF0030AD8B4BFEF0CF0050AD8B4C5EF73
:1019E6000CF0010AD8B4CBEF0CF0CFEF0CF020EEE0
:1019F60002F05C50D9265D50DA22DE50DE10D8B4F3
:101A060007EF0DF009EF0DF046EF0EF0000E466EF3
:101A1600000E476E800E486EBF0E496E000E146EA5
:101A2600000E156E800E166E400E176E20EE02F03A
:101A36005C50D9265D50DA22DECF5EF0DDCF5FF056
:101A46005EC0D9FF5FC0DAFFDECF02F0DECF03F063
:101A5600DECF04F0DECF05F0000EE6EC11F002C09A
:101A660010F003C011F004C012F005C013F06BECC7
:101A76000AF010C02DF011C02EF012C02FF013C0C6
:101A860030F0000E296E240E2A6E740E2B6E4A0E4E
:101A96002C6E56EC0EF029C042F02AC043F02BC043
:101AA60044F02CC045F00BEC08F042C052F043C0A5
:101AB60053F044C054F045C055F0C0EC12F05250FB
:101AC600C86E20EE02F05C50D9265D50DA2210EE88
:101AD60004F0DE50E126DD50E222E604D8A476EFDB
:101AE6000DF078EF0DF07BEF0DF0C58892EF0DF05D
:101AF60020EE02F05C50D9265D50DA2210EE04F09A
:101B0600DE50E126DD50E222E750D8A48DEF0DF03D
:101B16008FEF0DF092EF0DF0C59892EF0DF020EEDD
:101B260002F05C50D9265D50DA2210EE05F0DE5048
:101B3600E126DD50E222E604D8A4A4EF0DF0A6EFDC
:101B46000DF0A9EF0DF0C586C0EF0DF020EE02F006
:101B56005C50D9265D50DA2210EE05F0DE50E12603
:101B6600DD50E222E750D8A4BBEF0DF0BDEF0DF03B
:101B7600C0EF0DF0C596C0EF0DF020EE02F05C5000
:101B8600D9265D50DA2210EE06F0DE50E126DD5051
:101B9600E222E604D8A4D2EF0DF0D4EF0DF0D6EF92
:101BA6000DF0ECEF0DF020EE02F05C50D9265D5002
:101BB600DA2210EE06F0DE50E126DD50E222E75092
:101BC600D8A4E8EF0DF0EAEF0DF0ECEF0DF0ECEF36
:101BD6000DF020EE02F05C50D9265D50DA2210EEB0
:101BE60007F0DE50E126DD50E222E604D8A4FEEF3F
:101BF6000DF000EF0EF002EF0EF018EF0EF020EEF3
:101C060002F05C50D9265D50DA2210EE07F0DE5065
:101C1600E126DD50E222E750D8A414EF0EF016EFCD
:101C26000EF018EF0EF018EF0EF020EE02F05C50FA
:101C3600D9265D50DA2210EE08F0DE50E126DD509E
:101C4600E222E604D8A42AEF0EF02CEF0EF02EEFD7
:101C56000EF055EF0EF020EE02F05C50D9265D50E6
:101C6600DA2210EE08F0DE50E126DD50E222E750DF
:101C7600D8A440EF0EF042EF0EF044EF0EF055EF11
:101C86000EF055EF0EF020EE04F05C50D9265D50B4
:101C9600DA22DE50DE10D8B453EF0EF055EF0EF018
:101CA60044EF0EF012002C50800B396E2C502C2471
:101CB600406E2BAE61EF0EF063EF0EF064EF0EF0A8
:101CC60040804050D8B46AEF0EF06CEF0EF081EF12
:101CD6000EF04028D8A472EF0EF074EF0EF07CEFF1
:101CE6000EF0000E296E000E2A6E000E2B6E000EF0
:101CF6002C6E2B8E000E2C6E89EF0EF0000E296EC8
:101D0600000E2A6E000E2B6E000E2C6E3050800BCD
:101D1600391A30503024416E2FAE94EF0EF096EF04
:101D26000EF097EF0EF041804150D8B49DEF0EF0C3
:101D36009FEF0EF0B4EF0EF04128D8A4A5EF0EF0F9
:101D4600A7EF0EF0AFEF0EF0000E2D6E000E2E6E0A
:101D5600000E2F6E000E306E2F8E000E306EBCEF12
:101D66000EF0000E2D6E000E2E6E000E2F6E000E63
:101D7600306E2D502E102F103010D8A4C5EF0EF057
:101D8600C7EF0EF0DFEF0EF0000E296E000E2A6E82
:101D9600000E2B6E000E2C6E800E2B127F0E2C1258
:101DA60039502C1229C029F02AC02AF02BC02BF05A
:101DB6002CC02CF022EF10F04050D8A4E5EF0EF026
:101DC600E7EF0EF0F1EF0EF0000E296E000E2A6E10
:101DD600000E2B6E000E2C6E22EF10F0415040C00C
:101DE60031F0326A315E000E325A7F0E31243A6E7D
:101DF600000E32203B6E29C035F02AC036F02BC0CB
:101E060037F02CC038F0000E296E000E2A6E000E38
:101E16002B6E000E2C6E000E3C6E000E3D6E000EFC
:101E26003E6E000E3F6E000E416E52EF0FF04150B7
:101E3600D8B420EF0FF022EF0FF039EF0FF0D89063
:101E46003536363637363836D89029362A362B3652
:101E56002C363FAE31EF0FF033EF0FF034EF0FF0CB
:101E66002980D8903C363D363E363F362D50355C7F
:101E76002E5036582F50375830503858D8A046EF85
:101E86000FF048EF0FF051EF0FF03F8C2D50355EFD
:101E96002E50365A2F50375A3050385A412A190E7A
:101EA600416458EF0FF05AEF0FF01AEF0FF035506C
:101EB600361037103810D8B463EF0FF065EF0FF017
:101EC6007DEF0FF03C807DEF0FF0D89029362A3653
:101ED6002B362C363FAE72EF0FF074EF0FF075EF26
:101EE6000FF02980D8903C363D363E363F363A06CE
:101EF600D8A03B062BAE82EF0FF084EF0FF068EF11
:101F06000FF0000E416E3FAE8BEF0FF08DEF0FF02E
:101F1600B1EF0FF0FF0E3C14316EFF0E3D14326E22
:101F2600FF0E3E14336E7F0E3F14346E3150321066
:101F360033103410D8B4A2EF0FF0A4EF0FF0A8EFCF
:101F46000FF0010E416EB1EF0FF029A0ADEF0FF0CB
:101F5600AFEF0FF0B1EF0FF0A4EF0FF04150D8B490
:101F6600B7EF0FF0B9EF0FF0DDEF0FF0010E2926F6
:101F7600000E2A222B222C222CA0C4EF0FF0C6EF33
:101F86000FF0DDEF0FF029C031F02AC032F02BC080
:101F960033F02CC034F0343434323332323231320E
:101FA60031C029F032C02AF033C02BF034C02CF0F7
:101FB6003A4A3B2A3BBEE8EF0FF03B5008E13A288D
:101FC600D8A0E8EF0FF0EAEF0FF0F5EF0FF0000EF4
:101FD6003B6E3A68000E296E000E2A6E000E2B6EBE
:101FE600000E2C6E3BBE02EF10F03B5006E13A04A9
:101FF600D8B000EF10F002EF10F010EF10F0000E66
:102006003B6E000E3A6E000E296E000E2A6E000E12
:102016002B6E000E2C6E000E396E3AC040F040A0BA
:1020260017EF10F019EF10F01CEF10F02B8E1DEFCC
:1020360010F02B9ED89040302C6ED3EF0EF012008D
:102046000600F2A829EF10F02BEF10F034EF10F095
:10205600F2A230EF10F032EF10F034EF10F089EC0E
:1020660014F0F0A639EF10F03BEF10F044EF10F04B
:10207600F0A040EF10F042EF10F044EF10F087ECC4
:1020860014F0F0A849EF10F04BEF10F054EF10F0F9
:10209600F0A250EF10F052EF10F054EF10F085EC74
:1020A60014F0F2A659EF10F05BEF10F076EF10F097
:1020B600F2A060EF10F062EF10F076EF10F081A85A
:1020C60067EF10F069EF10F076EF10F07B04D8A4FC
:1020D6006FEF10F071EF10F076EF10F0000E7B6EE0
:1020E600000E58EC14F0F2A67BEF10F07DEF10F026
:1020F60098EF10F0F2A082EF10F084EF10F098EF56
:1021060010F081B889EF10F08BEF10F098EF10F017
:102116007B50D8A491EF10F093EF10F098EF10F0E9
:10212600010E7B6E010E58EC14F0F2A69DEF10F036
:102136009FEF10F0BAEF10F0F2A0A4EF10F0A6EFA8
:1021460010F0BAEF10F081AAABEF10F0ADEF10F07F
:10215600BAEF10F07A04D8A4B3EF10F0B5EF10F090
:10216600BAEF10F0000E7A6E000E4BEC14F0F2A6E9
:10217600BFEF10F0C1EF10F0DCEF10F0F2A0C6EFE9
:1021860010F0C8EF10F0DCEF10F081BACDEF10F0D0
:10219600CFEF10F0DCEF10F07A50D8A4D5EF10F0A6
:1021A600D7EF10F0DCEF10F0010E7A6E010E4BEC5B
:1021B60014F0F2A6E1EF10F0E3EF10F0FEEF10F0EE
:1021C600F2A0E8EF10F0EAEF10F0FEEF10F081ACAD
:1021D600EFEF10F0F1EF10F0FEEF10F07904D8A455
:1021E600F7EF10F0F9EF10F0FEEF10F0000E796E39
:1021F600000E3EEC14F0F2A603EF11F005EF11F01D
:1022060020EF11F0F2A00AEF11F00CEF11F020EF21
:1022160011F081BC11EF11F013EF11F020EF11F066
:102226007950D8A419EF11F01BEF11F020EF11F03F
:10223600010E796E010E3EEC14F0F2A625EF11F0B8
:1022460027EF11F042EF11F0F2A02CEF11F02EEF74
:1022560011F042EF11F081AE33EF11F035EF11F0CE
:1022660042EF11F07804D8A43BEF11F03DEF11F0E6
:1022760042EF11F0000E786E000E31EC14F0F2A66B
:1022860047EF11F049EF11F064EF11F0F2A04EEFB5
:1022960011F050EF11F064EF11F081BE55EF11F01F
:1022A60057EF11F064EF11F07850D8A45DEF11F0FC
:1022B6005FEF11F064EF11F0010E786E010E31EC54
:1022C60014F09DAC69EF11F06BEF11F074EF11F0A3
:1022D6009EAC70EF11F072EF11F074EF11F08FEC0D
:1022E60014F0F2AA79EF11F07BEF11F084EF11F000
:1022F600F2A480EF11F082EF11F084EF11F083EC7D
:1023060014F09DA089EF11F08BEF11F094EF11F00E
:102316009EA090EF11F092EF11F094EF11F075EC92
:1023260014F09DA299EF11F09BEF11F0A4EF11F0BC
:102336009EA2A0EF11F0A2EF11F0A4EF11F07BEC3A
:1023460014F0A0A2A9EF11F0ABEF11F0B4EF11F069
:10235600A1A2B0EF11F0B2EF11F0B4EF11F06FECF3
:1023660014F09DA4B9EF11F0BBEF11F0C4EF11F01A
:102376009EA4C0EF11F0C2EF11F0C4EF11F08DEC86
:1023860014F0A0A0C9EF11F0CBEF11F0D4EF11F0CB
:10239600A1A0D0EF11F0D2EF11F0D4EF11F08BEC39
:1023A60014F09DA8D9EF11F0DBEF11F0E4EF11F076
:1023B6009EA8E0EF11F0E2EF11F0E4EF11F091ECDE
:1023C60014F07D9211000A6E0A50D8B4EDEF11F0A8
:1023D600EFEF11F011EF12F005BEF6EF11F0F4EF8A
:1023E60011F011EF12F002C006F003C007F004C0AE
:1023F60008F005C009F0061E071E081E091E062A5B
:10240600000E07220822092206C00CF007C00DF0B4
:1024160008C00EF009C00FF019EF12F002C00CF060
:1024260003C00DF004C00EF005C00FF002500310FB
:1024360004100510D8A422EF12F024EF12F02EEFAC
:1024460012F0000E026E000E036E000E046E000EF9
:10245600056EBFEF12F0960E0B6E38EF12F00B2AD8
:10246600D8900F320E320D320C32000E0C14066E5E
:10247600000E0D14076E000E0E14086EFE0E0F14DD
:10248600096E0650071008100910D8A44DEF12F077
:102496004FEF12F032EF12F05DEF12F00B2A010E41
:1024A6000C26000E0D220E220F22D8900F320E326D
:1024B6000D320C32000E0C14066E000E0D14076E53
:1024C600000E0E14086EFF0E0F14096E065007104C
:1024D60008100910D8A472EF12F074EF12F051EF41
:1024E60012F07CEF12F00B06D8900C360D360E3635
:1024F6000F360EBE81EF12F083EF12F08BEF12F063
:10250600020E0B6089EF12F08BEF12F076EF12F0ED
:102516000BB090EF12F092EF12F093EF12F00E9EC6
:10252600D8900B320BC006F0076A086A096A06C023
:1025360009F0086A076A066A06500C1207500D125F
:1025460008500E1209500F120A50D8B4ADEF12F00F
:10255600AFEF12F0B7EF12F005BEB6EF12F0B4EF20
:1025660012F0B7EF12F00F8E0CC002F00DC003F0A0
:102576000EC004F00FC005F01200543455345B6EE3
:102586005B50D8A4C9EF12F0CBEF12F0D5EF12F0E2
:10259600000E526E000E536E000E546E000E556EF7
:1025A60042EF13F052C056F053C057F054C058F0E3
:1025B60055C059F0200EE5EF12F0D8905932583236
:1025C60057325632E82EE0EF12F056505A6E548EBD
:1025D600FF0E5216FF0E5316FF0E5416000E55161A
:1025E600960E5B5E5BBEFCEF12F0FAEF12F012EF96
:1025F60013F05B50800A970FD8B004EF13F006EF84
:1026060013F008EF13F0CBEF12F0D8905532543296
:10261600533252325B3E08EF13F02AEF13F01F0ECF
:102626005B6418EF13F01AEF13F022EF13F0CBEF01
:1026360012F0D89052365336543655365B065B50F8
:10264600D8A428EF13F02AEF13F01CEF13F05A501A
:10265600D8B430EF13F032EF13F03AEF13F0551E03
:10266600541E531E526C000E53225422552252C041
:1026760052F053C053F054C054F055C055F01200F8
:10268600B10E5C6E000E5D6E80EC0CF0000E036EFB
:102696007C0E046E000E056E040EA6EC13F07C0E86
:1026A600026E000E036E770EE8EC13F065EC14F084
:1026B6007C0E026E000E036E000EE8EC13F01EECAC
:1026C60014F0060E0001DC6F130EDB6FAD0EE82E64
:1026D600FED7DB2FFCD7DC2FFAD700D049EF13F05B
:1026E60007EF00F0920EF66E270EF76E000EF86EEC
:1026F60000EE80F010EE3DF00900F5CFEEFFE5505C
:10270600E150FAE1FE0EF66E280EF76E000EF86E38
:1027160000EE76F010EE07F00900F5CFEEFFE5507B
:10272600E150FAE100EEBDF01E0EEE6AE806FDE1AC
:1027360000EE60F0160EEE6AE806FDE17D907D92F1
:10274600000143EF13F0066E06EC14F0076E070463
:10275600D8A4B0EF13F0B2EF13F0B6EF13F00650B3
:1027660006240310C96EC7B0BBEF13F0BDEF13F01C
:10277600B6EF13F09E96C5BCC3EF13F0C5EF13F08A
:10278600C7EF13F0C7EF13F09E961200800F810F6C
:10279600820F830F840F890F8A0F8B0F8C0F8D0F7B
:1027A600920F930F940F950F960F323A030B131B4C
:1027B600232B333BA086010000000101010801A87C
:0927C600000000020A121A222A86
:1027D000046E02500310D8B4F0EF13F0F2EF13F0D0
:1027E00005EF14F004C0C9FFC7B0F9EF13F0FBEF19
:1027F00013F0F4EF13F09E96C5BC01EF14F003EF55
:1028000014F005EF14F005EF14F01200C580C5B008
:102810000CEF14F00EEF14F007EF14F09E96C7A61D
:1028200014EF14F016EF14F01AEF14F0010E026E0C
:102830001CEF14F0000E026E02501200C584C5B4E5
:1028400024EF14F026EF14F01FEF14F09E96C7A8A3
:102850002CEF14F02EEF14F030EF14F030EF14F0F2
:102860001200016EF2900150D8A439EF14F03BEF42
:1028700014F03DEF14F03DEF14F01200016EF290F1
:102880000150D8A446EF14F048EF14F04AEF14F0CA
:102890004AEF14F01200016EF2900150D8A453EFE9
:1028A00014F055EF14F057EF14F057EF14F0120036
:1028B000016EF2900150D8A460EF14F062EF14F0B2
:1028C00064EF14F064EF14F01200C582C5B26BEF30
:1028D00014F06DEF14F066EF14F09E961200A192C2
:1028E0006150B36E60C0B2FF12009E906350CF6E15
:1028F00062C0CEFF12009E926EC0CCFF1200625AE0
:052900000101010101CD
:10290600F2941200F0921200F0901200F29212006D
:0E291600A19012009E9412009E9C12001200CE
:020000040020DA
:08000000FFFFFFFFFFFFFFFF00
:020000040030CA
:0E000000FF02091EFF8181FF0FC00FE00F40BD
:00000001FF
